:020000040800F2
:10000000A85B0020F90200080F36000887320008BC
:100010000D360008A90B0008F5410008000000009B
:10002000000000000000000000000000390200088D
:100030005110000800000000950200085736000823
:100040001303000813030008130300081303000838
:100050001303000813030008130300081303000828
:100060001303000813030008130300081303000818
:10007000F10E000813030008FD0E0008130300082A
:10008000130300081303000813030008490C0008B9
:10009000AD0B00081303000813030008A5100008A7
:1000A00013030008130300081303000813030008D8
:1000B00013030008AD370008B93700081303000820
:1000C00013030008130300081303000813030008B8
:1000D000130300083D3F000813030008593F0008C0
:1000E0001303000813030008130300081303000898
:1000F0001303000813030008130300081303000888
:100100001303000813030008130300081303000877
:100110001303000813030008130300081303000867
:100120001303000813030008090F00081303000855
:10013000130300081303000813030008CD0C000884
:10014000550C0008130300081303000813030008EC
:100150001303000813030008150F00081303000819
:100160001303000813030008130300081303000817
:100170001303000813030008130300080000000025
:10018000130300081303000800F002F800F045F81C
:100190000AA090E8000C82448344AAF10107DA45E2
:1001A00001D100F03AF8AFF2090EBAE80F0013F0EF
:1001B000010F18BFFB1A43F0010318474C850000DC
:1001C0006C850000103A24BF78C878C1FAD852076D
:1001D00024BF30C830C144BF04680C6070470000C1
:1001E0000023002400250026103A28BF78C1FBD840
:1001F000520728BF30C148BF0B6070471FB508F0D9
:10020000FEF89DE8030000F0BFFA00F0CDF91FBD35
:1002100010B5002000F051FA10BD00F0F7FA1146B9
:10022000FFF7ECFF05F089FD00F02FFB03B4FFF7AB
:10023000EFFF03BC00F0E4FA2C4B19680868B0E843
:10024000F04F80F30988BFF36F8F4FF0000080F309
:10025000118870470000000008480068006880F3BB
:1002600008884FF0000080F3148862B661B6BFF3CF
:100270004F8FBFF36F8F00DF00BF00BF08ED00E0BE
:10028000DFF80C00016841F470010160704700BFA5
:1002900088ED00E0EFF30980BFF36F8F134B1A680E
:1002A0001EF0100F08BF20ED108A20E9F04F1060FB
:1002B00009B44FF0500080F31188BFF34F8FBFF3A4
:1002C0006F8F06F073FC4FF0000080F3118809BCBB
:1002D00019680868B0E8F04F1EF0100F08BFB0ECC6
:1002E000108A80F30988BFF36F8F704728000020C1
:1002F000EFF3058070470000094880470948004730
:10030000FEE7FEE7FEE7FEE7FEE7FEE7FEE7FEE7C5
:10031000FEE7FEE704480549054A064B7047000022
:100320000537000889010008A8550020A85B0020B7
:10033000A8570020A857002053EA020C00F069805B
:100340002DE9F04B4FF00006002B1FBFB3FA83F5E9
:1003500003FA05F424FA05F65E4012BF1643B2FA1A
:1003600082F502FA05F4C5F120051EBF22FA05FC4C
:1003700044EA0C04203556EA044C4FEA144418BFF2
:10038000641C4FF000084FF00009904271EB030C21
:1003900039D3002919BFB1FA81F701FA07F6B0FA8B
:1003A00080F700FA07F6C7F120071EBF20FA07FC06
:1003B00046EA0C062037B6FBF4FCA7EB0507103F16
:1003C00007F01F0BCBF120060CFA0BFB2CFA06F6FC
:1003D00044BFB3460026202FA4BF5E464FF0000B5B
:1003E0005BEA060C08BF4FF0010B19EB0B09ABFBE6
:1003F000027C48EB0608C01B06FB02CC0BFB03CCBF
:1004000071EB0C01C1E70B46024641464846BDE888
:10041000F08B13B54FF000004FF00001AFF30080F8
:10042000BDE81C4070472DE9F041074615460E46D1
:10043000102000F0E1F804000AD06760C4E902650A
:1004400000F0D6F80168216004600020BDE8F0816A
:100450000120FBE7032A40F2308010F0030C00F08B
:10046000158011F8013BBCF1020F624498BF11F8EE
:1004700001CB00F8013B38BF11F8013BA2F10402A7
:1004800098BF00F801CB38BF00F8013B11F003031F
:1004900000F02580083AC0F0088051F8043B083A83
:1004A00051F804CBA0E80810F5E7121D5CBF51F825
:1004B000043B40F8043BAFF30080D20724BF11F89F
:1004C000013B11F801CB48BF11F8012B24BF00F804
:1004D000013B00F801CB48BF00F8012B704710B575
:1004E000203AC0F00B80B1E81850203AA0E818502C
:1004F000B1E81850A0E81850BFF4F5AF5FEA027CED
:1005000024BFB1E81850A0E8185044BF18C918C05B
:10051000BDE810405FEA827C24BF51F8043B40F8FC
:10052000043B08BF7047D20728BF31F8023B48BFE1
:1005300011F8012B28BF20F8023B48BF00F8012B1F
:10054000704702F0FF0343EA032242EA024200F04E
:10055000D7B84FF0000200B51346944696462039AE
:1005600022BFA0E80C50A0E80C50B1F12001BFF46C
:10057000F7AF090728BFA0E80C5048BF0CC05DF8D2
:1005800004EB890028BF40F8042B08BF704748BF20
:1005900020F8022B11F0804F18BF00F8012B704794
:1005A000704770477047000070B5064C7C44064D9C
:1005B0007D4403E0206820448047241DAC42F9D1EB
:1005C00070BD000078810000808100002DE9F041BD
:1005D00017460E46054633B107FB0354E41B20467D
:1005E000B047A542FAD1A5F10800BDE8F0810000AE
:1005F000004870478055002070B5064600F0A4F80A
:10060000056806F10B0020F00704B4429CBF0020EF
:1006100070BD2B466A68BAB11068A04210D304F1CD
:10062000080188423CBF5068586007D351681019D0
:1006300041601168091B016058601460101D70BD95
:1006400013465268002AE7D12146284600F088F870
:100650000028DED170BD70B50446051F00F074F8A7
:100660000068002C14BF446870BD002C18BFAC4259
:100670003CBF20466468F8D301680A18AA4218BF34
:10068000456003D12A680546114401602868411974
:10069000A1421CBF6C6070BD61686960216808443C
:1006A000286070BD10B500F053F8006810BD10B59B
:1006B000044600F04DF8046010BD2DE9F0410646F7
:1006C000FFF796FF8046454613E016B1E068B0425A
:1006D0000ED120682860D4E90101D8F8007088475D
:1006E0002046FFF7B8FFD8F80000B842EBD100E091
:1006F00025462C68002CE8D1BDE8F0814FF00002BF
:100700000429C0F0128010F0030C3FF424AFCCF1A8
:10071000040CBCF1020F18BF00F8012BA8BF20F891
:10072000022BA1EB0C01FFF716BF5FEAC17C24BFCF
:1007300000F8012B00F8012B48BF00F8012B70478F
:100740000048704748550020004870475055002029
:100750000048704748550020704770477047704701
:1007600038B504460A4600206946AFF300800028E9
:1007700008BF38BD02460099204600F06CF8012001
:1007800038BD012000F0A3B8F8B5AFF300800546EE
:1007900000200C46102000BF0646A819A0420DD923
:1007A000324669460020AFF30080070008BF00F022
:1007B0008EF80098A04218BF0546C419FFF7C4FF81
:1007C00005600746F01D20F007004619284600F096
:1007D0000AF8B44208BFF8BDA21B31463868BDE82C
:1007E000F84000F038B800210160C0E901107047FE
:1007F00010207047002801D000F002B870470000B8
:1008000001491820ABBEFEE7260002007546FFF73F
:1008100097FFAE4605006946534620F0070085461F
:1008200018B020B5FFF776FDBDE820404FF0000678
:100830004FF000074FF000084FF0000B21F00701C8
:10084000AC46ACE8C009ACE8C009ACE8C009ACE80B
:10085000C0098D467047034640688C46002818BF83
:1008600088423CBF03464068F8D318681844884261
:1008700007D00CF1030020F00700001D411A521AA6
:100880000146081D0A60FFF7E6BE10B50446AFF347
:1008900000802046BDE81040FFF7C8BC70B5054693
:1008A0000C460A2000E06D1C00F018F835B12878DD
:1008B0000028F8D102E0641C00F010F814B1207890
:1008C0000028F8D1BDE870400A2000F007B810B544
:1008D00000F00CF8BDE81040FFF78CBF08B5694682
:1008E0008DF800000320ABBE08BD704710B501288D
:1008F00005D0002103A0FFF7D1FF012010BD09A101
:10090000F8E7000053494752544D454D3A204F7582
:1009100074206F662068656170206D656D6F7279F7
:10092000000000003A2048656170206D656D6F72AF
:100930007920636F7272757074656400F0B587B06A
:1009400005460E460022002401203BE0052A38D24D
:10095000DFE802F0030A13252E00295D0D2900D1DE
:100960000122641CE4B22DE0295D0A2903D0002293
:10097000641CE4B226E00222FAE7A6F11A018C42D6
:1009800000DD0020002301A92F5DCF54641CE4B2D8
:100990005B1CDBB2182BF7D3521CD2B212E0295DDC
:1009A0000A2903D00022641CE4B20BE00422FAE717
:1009B000285D0D2802D101A803F0A2FB002200202F
:1009C00000E00022B44201D20128BFD007B00020CD
:1009D000F0BD0000DFF880912DED048B86B099F812
:1009E0000400C0070BD109F1040004F074FE30B11B
:1009F0005A480021417709F10400AFF30080584CB8
:100A0000564D40F2DC564FF00908208AA0F2AB5058
:100A1000632800D22682608AA0F2AB50632800D2FD
:100A20006682A08AA0F2AB50632800D2A682E08A38
:100A3000A0F2AB50632800D2E682278A37B9608AD9
:100A400020B9A08A10B9E08A002873D02089A0F2CA
:100A50009F7063285BD2608AA0F2DC50404207F0AE
:100A60005DFA9FED408B53EC182B07F0FFF89FEDDC
:100A70003F9B53EC192B07F069FA07F01DF828602B
:100A8000A7F2DC5007F04AFA53EC182B07F0EEF807
:100A900053EC192B07F05AFA07F00EF86860A08A99
:100AA000A0F2DC5007F03AFA53EC182B07F0DEF80E
:100AB0009FED301B53EC112B07F048FA06F0FCFFBA
:100AC0006861E08A00EE100AB8EE400A85ED030A7C
:100AD0006089A0F2DC5006F0EBFF322804DA062031
:100AE000287685F81B8003E0052028760820E87624
:100AF000E089B9F80010081A06F0DAFFB0F5487F6F
:100B00000DDDE089A9F800000A20287707E085F8C4
:100B10001B8002206876072028760320A8761748D5
:100B200000231A460D49006806F0A2F90B20287729
:100B30000EE0FFE718216846FFF70BFD1822104969
:100B40006846FFF7CCFC182269460448FFF7C7FC4B
:100B5000012005F00FF958E7FC000020285500207F
:100B6000E44D00200000000000407F400000000035
:100B7000000008400000000000000040F0000020DD
:100B80004485000810B500221146054802F04EFDCC
:100B900003F038FBBDE81040024804F03BBD000004
:100BA0009C010020B1100008FEE70000014800F0A1
:100BB00039BC0000040100208168002921D10268AD
:100BC00000F11C01A2F20122062A1AD2DFE802F08B
:100BD00003060A0E12150B4803F0A4BC09482C307A
:100BE00003F0A0BC0748583003F09CBC0548843093
:100BF00003F098BC044803F095BC03482C3003F084
:100C000091BC7047484F0020405200201FB50C4C4B
:100C10004FF0FF352A466946206806F03BFA012866
:100C2000F8D1084800F0E8FBC0B20028F9D00298DB
:100C30009DF80C3081B26A46024805F067F8E9E792
:100C4000DC00002004010020014800F0EBBB0000A4
:100C500004010020014800F0E5BB00002C01002049
:100C600010B50446A06804280FD12146074804F0B7
:100C70008DF906482146383004F088F921460348AA
:100C8000BDE81040703004F081B910BD98520020CA
:100C90001FB50C4C4FF0FF352A466946206806F018
:100CA000F9F90128F8D1084800F0A6FBC0B20028E5
:100CB000F9D09DF80C306A460348029905F00EF809
:100CC000EAE70000E00000202C010020014800F0CD
:100CD000A9BB00002C01002030B58BB08D0701F0BE
:100CE00003040CD5D5040195D20042EA44020292D5
:100CF000DA040392DA0042EA4402049206E0520166
:100D00000192620002925B0103930492CA08069268
:100D1000C1F38001059101210991002207920891F8
:100D20000E210A9101A900F055FA002801D000F027
:100D3000BCF90BB030BD000070B505460C46284626
:100D400000F005FE08B100F0B0F90121284600F0DE
:100D5000BDF908B100F0A9F90221284600F0B6F962
:100D600008B100F0A2F91021284600F0AFF908B14F
:100D700000F09BF9074A28680749904202D10C60AD
:100D8000002070BD054A904202D14C60002070BD29
:100D9000012070BD00640040A800002000680040F1
:100DA0002DED048B8AB0484EDFED488A484C494D02
:100DB0009FED499A9FED498A464800F04BF9012280
:100DC0004449306806F066F9012829D1E87E0828F0
:100DD0002AD0182104A8FFF7BCFB07A807C88DE894
:100DE000070004A93E480EC903F039FD287E0628F5
:100DF00027D0052804D0B0EE480A3A4804F0EAF9B2
:100E0000687E01284CD00022B0EE480A11463548D1
:100E100004F046FA324803F0D5FB324804F0C2FA37
:100E2000012004F0A7FFC7E72A480838D0E90623C5
:100E3000416908308DE80E000EC8294803F00FFD07
:100E4000D4E72868B0F17C5F06DDD4ED000A70EECF
:100E5000A80AC4ED000A08E0B0F13F4F05D9D4ED6F
:100E6000000A70EEE80AC4ED000AD4ED000AF5EEBF
:100E7000C00AF1EE10FA02D284ED008A0AE0D4ED45
:100E8000000A194910EE900A884203DDDFED170AC7
:100E9000C4ED000A94ED000A124804F09BF9AFE794
:100EA000A87E032807D00122B0EE490A11460D485A
:100EB00004F0F6F9AEE7B0EE490A01220021094834
:100EC00004F0EEF9A6E70000F00000209A99193E20
:100ED000F80000200855002000401C4600000000DB
:100EE000004F0020385200200000C8430000C843D3
:100EF000014800F0B9BD000034030020014800F0B3
:100F0000B3BD000094030020014800F0ADBD000017
:100F1000D4020020014800F0A7BD000074020020A8
:100F20000168CAB2103A1823B2FBF3F2064B9B5C7D
:100F3000C3656FF30901032A02D9091D816500E029
:100F40008165806D70470000C884000810B50146B7
:100F500000208A6A8B694FF0C074002B0ED0B3F565
:100F6000005F1AD062B3012A2AD0022A28D0032AAD
:100F700003D1C96AC90100D5012010BD1AB1012AE7
:100F800006D0022AF9D1C96AC901F6D5012010BDDF
:100F9000C96AA142FBD1012010BD52B1012A0AD079
:100FA000022A06D0032AF7D1C96AA142F4D101204E
:100FB00010BD012010BDC96AC901FBD5012010BDBB
:100FC000012010BD30B50468256825F48025256012
:100FD000046863608368402B04D0036899600068EC
:100FE000C26030BD03689A600068C16030BD000017
:100FF00010B500221021082005F09CFE134C206043
:1010000000221021082005F095FE606000220C21CE
:10101000042005F08FFEA06000220C21042005F0C2
:1010200089FEE06000221821042005F083FE206183
:1010300000222021042005F07DFE606100220421B1
:10104000022005F077FEA06110BD0000DC0000204A
:101050007047000010B5007F104C0A280CD100200A
:1010600002F01AF9002002F00FF9207820B900F000
:101070001FF860600120207000F01AF8A06061681D
:10108000411A0748814207D9012002F005F90120E1
:1010900002F0FAF80020207010BD0000C40000200B
:1010A000A0500A00802000F071BE72B6FEE7FEE795
:1010B000054800680068416A0348001F0068C0EBEB
:1010C0000040084470470000B400002090F8202041
:1010D000012A07D0022A05D0416A41F480214162E9
:1010E00001207047006842690A434261002070474E
:1010F000F0B590F820500468A468012D07D0022DA7
:1011000005D0416A41F4802141620120F0BD04F024
:10111000806504F00066354301D1E50053D5C4F382
:1011200001640125A5401D608B684FF4C0759BB11B
:10113000CE6805EB041733434E6843EAC6030668DE
:10114000F3514FF4C273076803EB04130E69FE50AA
:10115000097D012909D00DE00E88CB6805EB041745
:1011600043EA46530668F351EBE70168CE5846F46C
:101170008076CE501179D379567941EA036193791B
:101180001B0443EA062319434FF4C676036806EBB3
:10119000041699511178D37841EA03619378527813
:1011A0001B0443EA022211434FF4C473026803EBA9
:1011B0000413D150006805EB0411425842F00102BB
:1011C00042500020F0BD416A41F40011416201200B
:1011D000F0BD000010B590F82020012A07D0022AA7
:1011E00005D0416A41F480214162012010BD3C4894
:1011F00000F50070026842F001020260026822F409
:101200007C52026002684B6A42EA032202600A7D55
:1012100002F01F0301229A40C3699343C361A0F502
:101220000070CB69B3B9D0F80C329343C0F80C32DC
:101230008C894B6864F31F434C6900EBC404C4F809
:1012400040320C890B6864F31F434C6900EBC40403
:10125000C4F84432CB69012B16D1D0F80C321343B9
:10126000C0F80C320C884B6864F31F434C6900EBE8
:10127000C404C4F840320C89CB6864F31F434C6942
:1012800000EBC404C4F844328B697BB1D0F804325B
:101290001343C0F804320B6973B1D0F8143213430E
:1012A000C0F81432096A01290CD010E0D0F80432D9
:1012B0009343C0F80432EEE7D0F814329343C0F8F9
:1012C0001432EFE7D0F81C121143C0F81C12D0F80A
:1012D000001221F00101C0F80012002010BD000032
:1012E00000640040704770B590F82040012C07D092
:1012F000022C05D0416A41F480214162012070BD79
:1013000021B104682469A4072AD003E00468E468D2
:10131000A4071FD04FF4D874056804EB01142D59AD
:1013200005F0040595600DB305682D59ED0855606D
:1013300005682C5904F00204D4604FF4DA7405688F
:1013400004EB01142E5906F00F06082E13D30825BE
:10135000156114E0416A41F400114162012070BD41
:10136000416A41F400114162012070BD05682D59A8
:101370006D0D1560DCE72D5905F00F051561056849
:101380002D59C5F30725956105682C59240C546126
:101390004FF4DC72046802EB0112A4581C7004685C
:1013A000A458240A5C700468A458240C9C70046837
:1013B000A258120EDA704FF4DE72046802EB0112CA
:1013C000A4581C710468A458240A5C710468A458C9
:1013D000240C9C710468A258120EDA7131B10068B5
:1013E000016941F020010161002070BD0068C16801
:1013F00041F02001C160F7E70246002092F820107A
:10140000012901D002290CD111688A68520100D546
:1014100001208A68120100D5401C8968C90000D5E6
:10142000401C70472DE9F05F054600242868466996
:10143000D0F804908768D0F80CA0D0F810B0D0F89D
:101440001880F10748D0F90714D001218160B8074E
:1014500003D5284600F0A8FA0CE0780702D54FF42F
:10146000006407E0380702D54FF4805402E02846B4
:1014700000F099FAF80516D529684FF48070886055
:10148000B80503D5284600F091FA0CE0780502D59E
:1014900044F4005407E0380502D544F4804402E0E7
:1014A000284600F082FAF80316D529684FF48030F8
:1014B0008860B80303D5284600F07AFA0CE0780378
:1014C00002D544F4004407E0380302D544F48034E4
:1014D00002E0284600F06BFA300707D55FEACA60E1
:1014E00004D544F4007429681020C86070074FF0D8
:1014F000080707D55FEA0A7004D52868C760284640
:1015000000F0C8F9B00706D52868C068800702D087
:10151000284600F0C1F9700607D55FEACB6004D514
:1015200044F48064296810200861B00607D55FEA9A
:101530000B7004D528680761284600F0D9F9F00639
:1015400006D528680069800702D0284600F0D2F945
:10155000B00308D55FEAC96005D529681020486046
:10156000284600F0F3F9F00307D55FEA097004D5C7
:1015700028684760284600F01CFA300446D55FEA28
:10158000497040D5F00504D55FEAC87001D044F039
:101590000104B00504D55FEA887001D544F0020467
:1015A000700504D55FEA487001D544F004043005A5
:1015B00029D518F0700F26D008F07000402815D0FB
:1015C00006DC102809D020280AD0302816D10AE0DD
:1015D00050280ED0602811D10EE044F008040DE030
:1015E00044F010040AE044F0200407E044F0400412
:1015F00004E044F0800401E044F4807428688169C8
:1016000021F070018161296804204860002C05D018
:10161000686A204368622846FFF764FEBDE8F09FD1
:1016200070B50446002C03D094F8200010B104E0FB
:10163000012070BD204600F09DF82068016841F04F
:101640000101016000F09EFC054605260CE000F05B
:1016500099FC401B0A2807D9606A40F40030606298
:1016600084F82060012070BD20684068C007EED07B
:101670002068016821F00201016000F083FC05464A
:101680000CE000F07FFC401B0A2807D9606A40F498
:101690000030606284F82060012070BD20684068DE
:1016A0008007EED4207E01283FD02068016821F019
:1016B00080010160607E01283DD02068016821F032
:1016C00040010160A07E01283BD02068016821F024
:1016D00020010160E07E012839D02068016841F0D6
:1016E00010010160207F012837D02068016821F0B7
:1016F00008010160607F012835D02068016821F071
:1017000004010160D4E902010843D4E90412114341
:1017100008436168491E08432168C861002060626F
:10172000012084F82000002070BD2068016841F08D
:1017300080010160BEE72068016841F0400101605E
:10174000C0E72068016841F020010160C2E720681D
:10175000016821F010010160C4E72068016841F0D0
:1017600008010160C6E72068016841F004010160DA
:10177000C8E700002DE9F04186B00446142101A815
:10178000FEF7E7FE3E4B3F4ADFF8F080186821681D
:101790003C4C03260227401C103200254FF0090C58
:1017A00041452FD11860012807D1106840F0007022
:1017B0001060106800F000700090206840F0080091
:1017C0002060206800F008000090019602970395C1
:1017D0000496CDF814C001A92B4800F0E3FA0022CA
:1017E0000521132000F06CFC132000F05BFC0022AC
:1017F0000521142000F064FC142000F053FC06B016
:10180000BDE8F081DFF884804145F8D1116841F0EE
:1018100080611160116801F08061009118600128F9
:1018200007D1106840F000701060106800F0007080
:101830000090206840F002002060206800F0020064
:1018400000904FF440500190029703950496CDF814
:1018500014C001A90E4800F0A5FA002205213F207E
:1018600000F02EFC3F2000F01DFC0022052140204E
:1018700000F026FC402000F015FCC0E700640040AA
:101880001400002030380240000C02400068004084
:10189000000402407047000070B504461048114D26
:1018A000114E84420AD12B46A5F11C02002120468C
:1018B000FFF719FD3168A5F11C0088470B488442E9
:1018C0000CD1084A2B461C3A00212046FFF70BFD9D
:1018D0007168BDE8704003481C38084770BD0000BF
:1018E000040100202C4D0020A80000202C01002025
:1018F0007047000070B504461048114D114E8442E7
:101900000AD12B46A5F11C0201212046FFF7EBFC72
:101910003168A5F11C0088470B4884420CD1084A65
:101920002B461C3A01212046FFF7DDFC7168BDE81B
:10193000704003481C38084770BD000004010020B7
:10194000504D0020A80000202C010020704770B5E9
:10195000044694F82000012805D0606A40F4002075
:101960006062012070BD022084F8200020680168B8
:1019700021F00101016000F005FB05460DE000F0DB
:1019800001FB401B0A2808D9606A40F400306062FD
:10199000052084F82000012070BD20684068C00741
:1019A000EDD1606270BD70477047704770477047F7
:1019B000704770472DE9F0410446A76D00F0E2FA48
:1019C000054694F835000026022806D08020606580
:1019D00084F834600120BDE8F0812068016821F0BE
:1019E000160101602068416921F080014161206C8D
:1019F00008B9A06C20B12068016821F008010160DD
:101A00002068016821F0010101600BE000F0BAFAE2
:101A1000401B052806D92020343420620320607042
:101A20002670D8E720680068C007EFD134343F2023
:101A300094F828108840B86001206070267000205B
:101A4000C9E790F83510022903D0802141650120B3
:101A50007047052180F835100068016821F0010108
:101A600001600020704700002DE9F84304464FF064
:101A70000009CDF800906F484FF416510068B0FB94
:101A8000F1F7A56D2E6894F85C00082202FA00F1C7
:101A9000314210D02068016849070CD5016821F057
:101AA0000401016094F85C0002FA00F1A960606D25
:101AB00040F00100606594F85C104FF0010808FAEE
:101AC00001F0304208D021684969090604D5A860B0
:101AD000606D40F00200606594F85C10042088405E
:101AE000304208D021680968890704D5A860606D74
:101AF00040F00400606594F85C101020884030428B
:101B000020D02168096809071CD5A86020680168F1
:101B100049030CD50068000304D4216C91B1204620
:101B200088470FE0A16C69B1204688470AE0016848
:101B3000C90503D4016821F008010160216C09B1D5
:101B40002046884794F85C102020884030424CD0D2
:101B500021680968C90648D5A86094F835000528A9
:101B60000BD020680168490330D50068000328D4F1
:101B7000616C51B32046884737E02068016821F046
:101B8000160101602068416921F080014161206CEB
:101B900008B9A06C20B12068016821F0080101603B
:101BA00094F85C103F208840A86084F8358084F861
:101BB0003490216D00293BD001B02046BDE8F043B0
:101BC0000847E16B09B1204688470EE00168C90566
:101BD00007D4016821F01001016084F8358084F891
:101BE0003490E16B09B120468847606D00281FD012
:101BF000606DC00714D0052084F8350020680168A6
:101C000021F0010101600098401C0090B84203D807
:101C100020680068C007F6D184F8358084F83490D5
:101C2000E16C002904D001B02046BDE8F04308472C
:101C3000BDE8F883240000202DE9F041044600F0BF
:101C4000A1F905465CB1022084F83500002684F82D
:101C500034602068016821F0010101600DE001207D
:101C6000BDE8F08100F08EF9401B052805D9202041
:101C70006065032084F83500F2E720680068C0073B
:101C8000F0D121680A6820480240D4E901031843D2
:101C9000D4E903352B43184363691843A3691843F8
:101CA000E3691843236A18431043626A042A03D184
:101CB000D4E90B231A43104308602068406920F0E0
:101CC0000700656A29460543012704290DD1A06A4A
:101CD0000543E06A48B12046FFF738F928B14020B3
:101CE000606584F835700120BAE7206845612046B8
:101CF000FFF716F994F85C203F21914081606665FA
:101D000084F835700020ABE73F8010F02DE9F041FA
:101D100004460025A66D94F8340001280DD001205A
:101D200084F8340094F835700020012F07D084F82F
:101D3000340002252846BDE8F0810220FBE7022797
:101D400084F8357060652046FFF73CF994F85C1024
:101D50003F208840B0602068016841F016010160B2
:101D6000206C20B12068016841F008010160206802
:101D7000016841F001010160DCE7000001468022BA
:101D8000014803F0D7B90000E44D002010B5044924
:101D90000A68024202D00860FFF7F0FF10BD0000A1
:101DA000143C01402DE9F84F0022DFF89C914FF0E0
:101DB000010803274FF00F0C09F1040AA9F1040BE5
:101DC00008FA02F50B682B40AB426ED10C7904F097
:101DD0000304012C01D0022C15D18668540007FAA7
:101DE00004FE26EA0E06D1F80CE00EFA04FE4EEAD6
:101DF000060EC0F808E04468AC430D79C5F3001541
:101E00009540254345600C79E443A40708D0C56894
:101E1000540007FA04F6B5438E68A6402E43C66008
:101E20000C7904F00304022C11D1D40800EB8406D1
:101E3000356A5407E40E0CFA04FE25EA0E05D1F8C3
:101E400010E00EFA04FE4EEA050EC6F820E0056822
:101E5000540007FA04F6B5430E7906F00306A640CF
:101E60002E4306604C6814F4403F67D0374C256819
:101E700045F480452560246804F480440094344C83
:101E800022F003052E19D6F8085894074FEA147E5D
:101E90000CFA0EF4A5432F4CA04201D1002424E0FB
:101EA0002D4CA04202D101241FE047E02B4CA04260
:101EB00001D1022419E02A4CA04201D1032414E0EC
:101EC000284CA04201D104240FE0274CA04201D1AC
:101ED00005240AE0254CA04201D1062405E0244C4B
:101EE000A04201D1072400E0082404FA0EF42C4398
:101EF000C6F80848D9F800409C434D68ED0200D56B
:101F00001C43C9F80040DAF800409C434D68AD021C
:101F100000D51C43CAF80040DBF800409C434D68E4
:101F2000AD0300D51C43CBF80040074D083D2C689D
:101F30009C434E68F60300D51C432C60521C102AAB
:101F4000FFF43EAFBDE8F88F083C01404438024042
:101F5000003001400000024000040240000802403E
:101F6000000C024000100240001402400018024021
:101F7000001C0240002A01D0816170470904816180
:101F8000704700000148806870470000180000207A
:101F9000024881680278114481607047180000206F
:101FA00010B50B48016841F400710160016841F40B
:101FB00080610160016841F480710160032000F0DC
:101FC0009FF80F2000F006F800F050F8002010BD38
:101FD000003C024030B587B0054600241E48016829
:101FE00041F002010160006800F00200009001A9C8
:101FF00002A800F03DF90598A8B100F05DF9400095
:102000001649B0FBF1F1491E1648154A026040F22C
:10201000E732C260416004618460846100F0CAFB01
:1020200004461CB115E000F047F9E9E70D4800F05F
:1020300013FC04466CB91D2000F034F8102D07D2B3
:10204000002229461D2000F03BF80748056000E00B
:10205000012407B0204630BD4038024040420F0006
:1020600000040040F40300201C00002082B00C4853
:10207000016841F480410160006800F480400190F3
:102080000748001F016841F080510160006800F0BE
:102090008050019000220F21901E02B000F010B875
:1020A00044380240002809DB00F01F020121914062
:1020B0004009800000F1E020C0F8001170470000E6
:1020C000F0B40D460D4B1B68C3F30223C3F10704A4
:1020D000042C00D90424191D072901D2002300E093
:1020E000DB1E012606FA04F1491E294099409E4054
:1020F000761E16403143F0BC03F0CBBA0CED00E085
:1021000000F00701054A10684FF6FF03184040EA47
:102110000120034908431060704700000CED00E007
:102120000000FA052DE9F04704460D46002C13D0B7
:10213000DFF82891D9F80000EFB200F00700A842BC
:102140000CD289F80070D9F8000000F00700A8420E
:1021500004D00120BDE8F0870120FBE72068404E55
:10216000810712D5400703D5306840F4E050306055
:102170002078000703D5306840F460403060306854
:10218000A16820F0F000084330602078C00731D00B
:10219000334960680839012808D002280BD0032889
:1021A00009D0096889070BD40120D3E7096889039E
:1021B00006D40120CEE70968890101D40120C9E7CE
:1021C000316821F0030101433160FFF7DBFE8046F7
:1021D00041F2883A07E0FFF7D5FEA0EB0800504532
:1021E00001D90320B6E73068616800F00C00B0EB5D
:1021F000810FF0D1D9F8000000F00700A84209D9FA
:1022000089F80070D9F8000000F00700A84201D05A
:1022100001209FE72078400705D53068E16820F469
:10222000E050084330602078000706D53068216907
:1022300020F4604040EAC100306000F05DF8316891
:10224000084AC1F30311515CC840074908600748B8
:102250000068FFF7BFFE00207CE70000003C024062
:1022600008380240D0840008240000201C00002010
:102270000F2202600B4A136803F0030343601368E4
:1022800003F0F0038360136803F4E053C360126843
:1022900002F46042D20802610348006800F00700BF
:1022A0000860704708380240003C0240014800685E
:1022B000704700002400002000B5FFF7F7FF044935
:1022C0000968044AC1F38221515CC84000BD000086
:1022D00008380240E084000800B5FFF7E7FF044932
:1022E0000968044AC1F34231515CC84000BD000096
:1022F00008380240E084000810B51748006810F064
:102300000C01164816D04310042912D0082911D107
:10231000114C241F216801F03F02216849020AD5AF
:102320002068C0F38810A0FB03010023FEF704F827
:1023300009E0184610BD21680023C1F38811A1FBF4
:102340000001FDF7F9FF2168C1F30141491C490073
:10235000B0FBF1F010BD0000083802400024F4008A
:102360002DE9F84F0446002C13D02078DFF8A08325
:10237000C007A8F1040556D008F104000168C1F3B4
:10238000810101290CD00068C0F38100022803D02C
:102390000DE00120BDE8F88FD8F80000400206D516
:1023A000286880033FD5606870BB0120F2E7606851
:1023B000B0F5803F10D0B0F5A02F12D0286820F4DF
:1023C00080302860286820F4802028606068E0B1B0
:1023D000FFF7D8FD064614E0286840F480302860F6
:1023E000F4E7286840F480202860286840F48030B2
:1023F0002860EBE7FFF7C6FD801B642801D90320A6
:10240000C8E728688003F5D50DE0FFF7BBFD064659
:1024100006E0FFF7B7FD801B642801D90320B9E768
:1024200028688003F5D42078BA4F80074FF0000960
:1024300048D5B748001D016811F00C0F08D000689E
:10244000C0F38100022813D1D8F8000040020FD455
:102450002868800704D5E068012801D0012099E7A9
:102460002868216920F0F80040EAC100286029E0CE
:10247000E068B8B101203860FFF784FD064606E049
:10248000FFF780FD801B022801D9032082E728681E
:102490008007F5D52868216920F0F80040EAC100DE
:1024A00028600FE0C7F80090FFF76CFD064606E0D5
:1024B000FFF768FD801B022801D903206AE728681E
:1024C0008007F5D42078000729D5DFF844A2924888
:1024D00061690AF1700A89B101210160FFF752FDBB
:1024E000064606E0FFF74EFD801B022801D90320B7
:1024F00050E7DAF800008007F4D510E0C0F800904B
:10250000FFF740FD064606E0FFF73CFD801B022872
:1025100001D903203EE7DAF800008007F4D42078E0
:10252000400778D54FF0000A79483C300068C00079
:102530000BD477483C30016841F08051016000685D
:1025400000F0805000904FF0010ADFF8D0B1DBF8C6
:102550000000C00514D4DBF8000040F48070CBF814
:102560000000FFF70FFD064606E0FFF70BFD801B9E
:10257000022801D903200DE7DBF80000C005F4D5DF
:10258000634EA0686C3601280FD0052812D0306841
:1025900020F001003060306820F004003060A06856
:1025A000F8B1FFF7EFFC834617E0306840F0010018
:1025B0003060F4E7306840F004003060306840F08C
:1025C00001003060EBE7FFF7DDFCA0EB0B0141F20F
:1025D0008830814201D90320DCE630688007F2D5DB
:1025E00010E0FFF7CFFC834609E0FFF7CBFCA0EB40
:1025F0000B0141F28830814201D90320CAE63068DC
:102600008007F2D4BAF1010F05D141483C3001688E
:1026100021F080510160A069C0B33D49091D0968DE
:102620004FF0FF36C1F38101022946D0022805D0C0
:10263000C7F86090FFF7A6FC04463AE0C7F8609040
:10264000FFF7A0FC814607E0FFF79CFCA0EB090028
:10265000022801D903209DE628688001F4D4D4E93A
:1026600007010843616AA26A890106EB520241EA46
:102670000241084394F82C1040EA0160C8F80000B9
:1026800001203866FFF77EFC044607E03DE0FFF7D7
:1026900079FC001B022801D903207BE62868800111
:1026A000F5D532E0FFF76EFC001B022801D90320AC
:1026B00070E628688001F5D427E0012823D0D8F8F7
:1026C0000000E26900F4800191421AD1226A00F010
:1026D0003F01914215D147F6C071626A0140B1EBEA
:1026E000821F0ED1A26A00F4403106EB5202B1EB18
:1026F000024F06D194F82C1000F07060B0EB016F1F
:1027000003D0012046E6012044E6002042E6000016
:102710000438024000004742800E474200700040EB
:102720007047704770B590F83C20012A31D00126DF
:1027300080F83C60022280F83D200268546893686B
:1027400024F070050C682C435460134C0268A242BC
:1027500014D0B2F1804F11D0104CA2420ED0104CC8
:10276000A2420BD00F4CA24208D00F4CA24205D07F
:102770000E4CA24202D00E4CA24204D123F08003A0
:102780004968194391603C30467000210170002077
:1027900070BD022070BD0000000001400004004038
:1027A00000080040000C00400004014000400140CF
:1027B0000018004010B50446002C03D094F83D00EA
:1027C00010B107E0012010BD002084F83C00204635
:1027D00000F016F8022084F83D00211D206800F06A
:1027E000F1FF01203D3460726070A070E0702071D4
:1027F0006071A071E07120722070002010BD000097
:1028000008B500681149884212D11148016841F0A9
:1028100004010160006800F004000090002205211E
:102820001E20FFF74DFCBDE808401E20FFF73ABC14
:102830000849884209D10648001D016841F4003169
:102840000160006800F40030009008BD00080040FE
:10285000403802400044014090F83D10012901D069
:1028600001207047022180F83D100168CA6842F0DB
:102870000102CA6000681449884214D0B0F1804F48
:1028800011D0124988420ED0114988420BD011490B
:10289000884208D01049884205D01049884202D0A9
:1028A0000F49884209D1816801F00701062908D043
:1028B000016841F00101016003E0016841F001019C
:1028C000016000207047000000000140000400404B
:1028D00000080040000C004000040140004001409E
:1028E0000018004070B50446002594F83C0001280B
:1028F00017D0012684F83C60022084F83D0020684F
:10290000826822F0770222F47F42826008685028B1
:1029100038D00DDC202853D005DC90B3102811D11D
:102920004EE0022070BD30284AD040280AD13DE058
:10293000602831D070280CD0B0F5805F03D0B0F59E
:10294000005F12D001253C346670002020702846BC
:1029500070BDCB68D1E90121206800F0AAFF206892
:10296000816841F077018160EDE7CB68D1E9012111
:10297000206800F09EFF2068816841F480418160FA
:10298000E1E71DE0CA684968206801F075F8502148
:10299000206800F098FFD6E7CA684968206801F00F
:1029A0007CF86021206800F08EFFCCE7CA68496897
:1029B000206801F061F84021206800F084FFC2E740
:1029C00022680146104600F07EFFBCE770472DE903
:1029D000F04104462068C56806694FF00007B1075A
:1029E00014D5A90712D5F91E0161012020772068AE
:1029F0008069800703D02046FFF7E8FF05E0204606
:102A000000F0ACF8204600F03CF92777700717D5A6
:102A1000680715D521686FF004000861022020774F
:102A20002068806910F4407F03D02046FFF7CEFF76
:102A300005E0204600F092F8204600F022F92777C2
:102A4000300716D5280714D521686FF008000861F3
:102A5000042020772068C069800703D02046FFF754
:102A6000B5FF05E0204600F079F8204600F009F9AE
:102A70002777F00617D5E80615D521686FF0100006
:102A80000861082020772068C06910F4407F03D0D7
:102A90002046FFF79BFF05E0204600F05FF8204648
:102AA00000F0EFF82777F00708D0E80706D0216894
:102AB0006FF001000861204600F052F9300608D599
:102AC000280606D521686FF0800008612046FFF7D0
:102AD00027FE700608D5680606D521686FF040000D
:102AE0000861204600F052F9B0060AD5A80608D5BC
:102AF00021686FF0200008612046BDE8F041FFF733
:102B000010BEBDE8F081000010B586B00446142167
:102B100001A8FDF71EFD0E482168814215D1002154
:102B20000C48026842F020020260006800F02000B9
:102B30000090402001900220029003910491032014
:102B4000059001A90448FFF72DF906B010BD00005B
:102B5000004401403038024000140240704770B514
:102B600004460D46002694F83C0001280FD00120B1
:102B700084F83C006AB1042A1FD0082A32D00C2AFB
:102B800044D00126002084F83C00304670BD02206D
:102B900070BD2946206800F09FFE2068816941F0E1
:102BA000080181612068816921F004018161206848
:102BB00081692A6911438161E4E72946206800F0B0
:102BC000BFFE2068816941F40061816120688169EC
:102BD00021F480618161206881692A6941EA0221CA
:102BE0008161CFE72946206800F0E4FE2068C169D2
:102BF00041F00801C1612068C16921F00401C1618F
:102C00002068C1692A691143C161BBE72946206870
:102C100000F008FF2068C16941F40061C1612068CB
:102C2000C16921F48061C1612068C1692A6941EAF2
:102C30000221C161A6E710B50446002C03D094F828
:102C40003D0010B107E0012010BD002084F83C00D9
:102C5000204600F015F8022084F83D00211D206870
:102C600000F0B0FD01203D3460726070A070E07033
:102C700020716071A071E07120722070002010BD81
:102C80007047704710B50446002909D004290AD0BE
:102C900008290BD094F8410001280AD0012010BD6A
:102CA00094F83E00F8E794F83F00F5E794F8400008
:102CB000F2E70220A9B3042937D0082938D084F8D4
:102CC00041000122206800F0E7FD1E4920681E4AED
:102CD000884201D0904203D1436C43F400434364E3
:102CE0002068884213D0B0F1804F10D01749884235
:102CF0000DD0174988420AD01649884207D0904221
:102D000005D01549884202D01449884213D1816800
:102D100001F00701062912D0016841F001010160AC
:102D20000DE0FFE784F83E00CBE784F83F00C8E7FA
:102D300084F84000C5E7016841F00101016000200E
:102D400010BD0000000001400004014000040040EC
:102D500000080040000C0040004001400018004006
:102D600010B5044607492068884201D1FFF710F9E1
:102D700005492068884203D1BDE8104001F032BA0D
:102D800010BD00000004004000080040704770477C
:102D900010B5044620684069C0F3C01094F8411093
:102DA000212911D180B12068143050E8001F21F092
:102DB000800140E80012002AF5D1A06B08B1FEF7AF
:102DC000F9FD204600F03CFF20684069C0F3801008
:102DD00094F84210222911D180B12068143050E8B3
:102DE000001F21F0400140E80012002AF5D1E06BFD
:102DF00008B1FEF7DFFD204600F0EEFE002010BD1A
:102E000070470000F8B5044622681068D16853691D
:102E100000F00F06002E08D1850606D58D0604D5D4
:102E20002046BDE8F84000F019BF0025002E66D00E
:102E300003F0010601F49077374360D0C20705D054
:102E4000CA0503D5626C42F001026264420705D5EF
:102E5000DA0703D0626C42F002026264820705D591
:102E6000DA0703D0626C42F004026264020707D5FD
:102E700001F02002324303D0626C42F00802626427
:102E8000626C002A31D0800604D5880602D520461F
:102E900000F0E4FE20684069C0F38010616C09070F
:102EA00000D438B3204600F097FE20684069400601
:102EB0001CD52068143050E8001F21F0400140E884
:102EC0000012002AF5D1E06B60B15F490165E06B4B
:102ED000FEF7B7FD002808D0E06B016D01B0BDE83A
:102EE000F04008472046FFF78BFFF8BD2046FFF76C
:102EF00087FFF8BD2046FFF783FF6564F8BD236BAD
:102F0000012B7DD1C3067BD5CB0679D510685068DF
:102F1000009050694FF0200340064FF002064FD555
:102F2000E26B1068406880B2DF00E8B3A18D814297
:102F30003BD9E085D069B8422DD020680C3050E8EC
:102F4000001F21F4807140E80012002AF5D12068AA
:102F5000143050E8001F21F0010140E80012002A5F
:102F6000F5D12068143050E8001F21F0400140E8FE
:102F70000012002AF5D184F84230256320680C3015
:102F800050E8001F21F0100140E80012002AF5D19E
:102F9000E06BFEF70FFD6663A08DE18D401A81B2F4
:102FA0002046FFF7F4FEF8BDFFE7A18D8142FAD17C
:102FB000D069B842F7D166632046FFF7E8FEF2E732
:102FC000A08DE18D401A81B2E08D0028EBD0002960
:102FD000E9D020680C3050E8002F22F4907240E8CD
:102FE0000027002FF5D12068143050E8002F22F080
:102FF000010240E80027002FF5D184F8423000E0BC
:103000000FE0256320680C3050E8002F22F01002FA
:1030100040E80023002BF5D166632046FFF7B7FE9A
:10302000C1E7020606D50A0604D52046BDE8F840E9
:1030300000F054BF4006B6D54806B4D52046BDE8DA
:10304000F84000F0F0BD0000DD3A000870B504461D
:10305000002C04D094F84100002510B106E00120B6
:1030600070BD84F84050204600F024F8242084F8F5
:1030700041002068C16821F40051C160204600F081
:1030800051FE2068016921F4904101612068416985
:1030900021F02A0141612068C16841F40051C160FA
:1030A0006564202084F8410084F8420065630020B4
:1030B00070BD00002DE9F04387B00446142102A83A
:1030C000FDF747FADFF878C1022220685D49032343
:1030D0000725002697064FF040094FF480686045A9
:1030E00055D158481430D0F800C04CF0100CC0F83E
:1030F00000C0006800F010000190086840F0010076
:103100000860086800F001000190580202900392E4
:1031100004960593069502A94B48FEF743FE4C4DD5
:103120004A4828606F60C5F80890EE60C5F81080C6
:103130006E61AE61EE612E626E622846FEF77CFD26
:1031400008B1FDF7B2FFA563AC634048404D783845
:10315000603528606F60AE60EE60C5F810806E610B
:10316000AE61EE612E626E622846FEF765FD08B123
:10317000FDF79BFFE563AC63002205212520FEF7E8
:103180009FFF2520FEF78EFF07B0BDE8F083DFF834
:10319000C4C06045F8D12B481030D0F800C04CF4C2
:1031A000802CC0F800C0006800F4802001900868FE
:1031B00040F002000860086800F0020001904FF43F
:1031C00040600290039204960593069502A9224856
:1031D000FEF7E8FD1E4D2148C03528606F60AE60E7
:1031E000EE60C5F810806E61AE61EE612E626E62B7
:1031F0002846FEF721FD08B1FDF757FFE563AC63F4
:103200001648174D303028606F60C5F80890EE60A2
:10321000C5F810806E61AE61EE612E626E62284666
:10322000FEF70AFD08B1FDF740FFA563AC6300227D
:1032300005212720FEF744FF2720FEF733FFA3E7F1
:10324000001001403038024000000240B8640240E3
:103250007402002000480040000402402860024040
:103260009403002090F84230202B01D002207047B8
:1032700021B11AB10023036300F0DEBD01207047C5
:10328000704770477047FEE7024601210148FEF78C
:1032900071BE000000080240024602210148FEF70C
:1032A00069BE00000008024010B50F480D490160DA
:1032B0000321416000218160C1604FF4002202615E
:1032C0004FF440124261017641768176C1760177F2
:1032D0004177FEF7A5F9002803D0BDE81040FDF7BF
:1032E000E4BE10BD006400400401002010B50F488A
:1032F0000D4901600321416000218160C1604FF4EC
:10330000002202614FF440124261017641768176DB
:10331000C17601774177FEF783F9002803D0BDE835
:103320001040FDF7C2BE10BD006800402C01002017
:1033300008B51948016841F480010160016801F491
:1033400080010091016841F400110160006800F4FF
:1033500000100090002205210C20FEF7B1FE0C2089
:10336000FEF7A0FE002205210E20FEF7A9FE0E208A
:10337000FEF798FE002205213A20FEF7A1FE3A2032
:10338000FEF790FE002205214620FEF799FEBDE8DB
:1033900008404620FEF786BE3038024010B5124A7B
:1033A0000021124802F024FD114C20600E4A002139
:1033B0002432104802F01CFD60600B4A00214832A4
:1033C0000D4802F015FDA060074A00216C320B4841
:1033D00002F00EFDE060044A00219032084802F03D
:1033E00007FD206110BD0000148400080D0C0008CA
:1033F00000000020A10D0008910C0008FB4100080E
:10340000D509000830B587B0142102A8FDF7A1F84E
:1034100000242B48016841F004010160016801F0BB
:1034200004010191016841F020010160016801F08F
:1034300020010191016841F080010160016801F003
:1034400080010191016841F002010160016801F011
:1034500002010191016841F001010160016801F080
:1034600001010191016841F008010160006800F06C
:1034700008000190134D002207212846FEF77AFD2F
:10348000802102914FF488110391049402A90E48FF
:10349000FEF788FC07210291012103910494032087
:1034A000059002A92846FEF77DFC00220521172081
:1034B000FEF706FE1720FEF7F5FD07B030BD000051
:1034C00030380240000802400014024010B588B0B5
:1034D0001C2101A8FDF73DF815481449016053214E
:1034E00041600024846040F63301C160046184615E
:1034F000FFF760F908B1FDF7D8FD0D48FFF79BFB1A
:1035000008B1FDF7D2FD6020019002940394059468
:10351000002201A90648FFF722FB08B1FDF7C5FD0F
:103520000348FFF7F1FA08B010BD00000044014065
:103530009C01002010B586B00024029403940494EA
:10354000059400940194144812490160532141608C
:1035500084604FF6FF71C16004618461FFF72AF94E
:1035600008B1FDF7A2FD4FF48050029002A90A486D
:10357000FFF7B8F908B1FDF798FD0094019469468A
:103580000548FFF7CFF8002801D0FDF78EFD06B003
:1035900010BD0000000800405401002010B50C4888
:1035A0000A4901604FF41651416000218160C160F9
:1035B00001610C2242618161C161FFF747FD002872
:1035C00003D0BDE81040FDF770BD10BD00100140F4
:1035D000E401002010B50C480A4901604FF4E131C4
:1035E000416000218160C16001610C224261816102
:1035F000C161FFF72BFD002803D0BDE81040FDF7A7
:1036000054BD10BD004800402C020020FEE7FEE73C
:1036100070B514461D46E06061602046FFF7CAF8A9
:1036200029462046BDE87040FFF72CBB0068C36AFE
:103630005B1C53436422B3FBF2F2002905D004293A
:1036400005D0082905D00264704742637047826341
:103650007047C263704710B54FF0E020006903F077
:1036600055FE012803D0BDE8104003F04DBB10BD4E
:1036700030B593B0302107A8FCF76BFF142102A8E6
:10368000FCF767FF00251D48016841F0805101608B
:10369000006800F0805001901948016841F48041B1
:1036A0000160006800F48040019001200790000450
:1036B000089002240D9480010E9004200F90A82100
:1036C00010911194129007A8FEF74AFE08B1FDF779
:1036D000ECFC0F200290039404954FF4A050059049
:1036E0004FF480500690052102A8FEF71BFD00282C
:1036F00001D0FDF7DAFC13B030BD000040380240C5
:10370000007000400248016841F470010160704798
:1037100088ED00E010B5FDF76BFC02211A4800F0BF
:10372000CFF90023194A49F63F4141F26700FFF7FC
:103730006FFF17491748FDF7FFFA17491748FDF7BC
:10374000FBFA00231A4619461248FDF7C5FA002372
:103750001A460C210F48FDF7BFFA00231A467221C2
:103760000E48FDF7B9FA00231A467E210B48FDF7F3
:10377000B3FA0B4B23220B490B4800F0FBFBBDE8CF
:103780001040FDF7FFB90000540100209C0100200B
:10379000B90B000804010020610C00082C01002076
:1037A0003D090008204E00202C0200200148FFF7B0
:1037B0000EB90000F40300200148FFF708B900002B
:1037C000540100202DE9F0410268284D284E294F70
:1037D000DFF8A4C0294B4FF08048A84209D04045EB
:1037E00007D0B04205D0B84203D0604501D098421E
:1037F00003D122F070044A682243A8421BD04045FE
:1038000019D0B04217D0B84215D0604513D09842B5
:1038100011D01B4CA0420ED01A4CA0420BD01A4C17
:10382000A04208D0194CA04205D0194CA04202D0A9
:10383000184CA04203D122F44074CA6822434C6958
:1038400022F0800222438C68C4620C688462A84221
:1038500001D0984201D109690163016841F0040176
:103860000160012141610260BDE8F081000001407A
:103870000004004000080040000C0040000401402B
:103880000040014000440140004801400018004051
:10389000001C00400020004010B501F01F01012372
:1038A0008B40046A9C430462036A8A4013430362A8
:1038B00010BD10B5846824F47F4442EA03220A4311
:1038C0002243826010BD826822F070020A4342F0F7
:1038D0000701816070470000F0B5056A026A22F0B6
:1038E000010202624368826922F0700222F0030240
:1038F0000C68144325F002058A682A430E4E0F4FC8
:10390000B04201D0B84205D122F00805CA682A4366
:1039100022F00402B04201D0B84207D123F48073F0
:1039200023F400734D691D438B692B43436084610D
:10393000496841630262F0BD00000140000401409B
:10394000F0B5026A036A23F01003036243688469D6
:1039500024F4E04424F440740D6844EA052422F081
:1039600020028D6842EA0512104D114EA84201D086
:10397000B04206D122F08002CF6842EA071222F05C
:103980004002A84201D0B04209D123F4806323F45D
:1039900000634D6943EA85038D6943EA850343600B
:1039A0008461496881630262F0BD0000000001404B
:1039B00000040140F0B5026A036A23F480730362D5
:1039C0004368C46924F0700424F003050C682C4398
:1039D00022F400728D6842EA0522104D104EA84272
:1039E00001D0B04206D122F40062CF6842EA072239
:1039F00022F48062A84201D0B04209D123F480535E
:103A000023F400534D6943EA05138D6943EA051316
:103A10004360C4614968C1630262F0BD00000140B7
:103A20000004014030B5036A026A22F48052026247
:103A30004268C46924F4E04424F440740D6844EA04
:103A4000052423F400538D6843EA0533084DA8424A
:103A500002D0084DA84204D122F480424D6942EAC6
:103A600085124260C46149680164036230BD000090
:103A7000000001400004014010B5036A046A24F00C
:103A800001040462846924F0F00444EA021423F07F
:103A90000A020A438461026210BD10B5036A046A17
:103AA00024F010040462846924F4704444EA02326D
:103AB00023F0A00343EA01118261016210BD0000FE
:103AC00010B5054A10601171FEF7C6FE002801D03E
:103AD000FDF7EDFA10BD0000B400002010B5806BBA
:103AE0000021C185FFF78CF910BD70B5846B20688B
:103AF0004069C0F3C01094F841100025212904D179
:103B000018B1E584204600F09BF820684069C0F3B6
:103B1000801094F84210222904D118B1E58520467E
:103B200000F05AF8606C40F0100060642046FFF727
:103B300067F970BD10B50146886B096809684FF0D8
:103B40000003C9052ED4C38501680C3151E8002F4C
:103B500022F4807241E80024002CF5D10168143170
:103B600051E8002F22F0010241E80024002CF5D199
:103B70000168143151E8002F22F0400241E800248E
:103B8000002CF5D1202180F84210016B012909D1C8
:103B900001680C3151E8002F22F0100241E80024A6
:103BA000002CF5D14363016B012902D0FFF768FBBC
:103BB00010BD818DFFF7EBF810BD10B5806B0121B2
:103BC0004163016B012902D0FFF75BFB10BD818DC2
:103BD0004908FFF7DCF810BD01680C3151E8002FEF
:103BE00022F4907241E80023002BF5D101681431D2
:103BF00051E8002F22F0010241E80023002BF5D10B
:103C0000016B012909D101680C3151E8002F22F024
:103C1000100241E80023002BF5D1202180F842104A
:103C200000210163704710B50168CA6822F04002A4
:103C3000CA60202180F84110FFF724FB002010BD4E
:103C400001680C3151E8002F22F0C00241E8002346
:103C5000002BF5D1202180F84110704708B590F86D
:103C60004210222901D0022008BD82684FF48053FF
:103C70009A4201D1016921B1816A9A421DD052B1A3
:103C80000BE0816A02685268C2F308020A80816A06
:103C9000891C816209E002697AB10268526802F007
:103CA0007F020A70816A491C8162C18D491E090424
:103CB000090CC18505D0002008BD026852680A7051
:103CC000F0E70168CA6822F02002CA600168CA6889
:103CD00022F48072CA6001684A6922F001024A61D6
:103CE000202180F8421000214163026B012A03D099
:103CF000FFF7C6FA002008BD016301680C3151E8E6
:103D0000002F22F0100241E80023002BF5D10168BA
:103D10000A68D20602D50A6849680091818DFFF7CA
:103D200036F8E7E72DE9F041044620680169E268CA
:103D300021F4405111430161A1682069E269014306
:103D40006069104301432068C26849F20C639A43DA
:103D50000A43C26020684169A26921F4407111439D
:103D6000416133492068884202D03249884202D1F9
:103D7000FEF7B2FA01E0FEF79FFAE1690023192786
:103D800064253226B1F5004F28D061688B0F8A0078
:103D9000A0FB0701FCF7D0FA0146B0FBF5F07A4230
:103DA000504301EB800006EB0010B0FBF5F000F093
:103DB000F002B1FBF5F002EB0012B1FBF5F07B4233
:103DC000584301EB800006EB0010B0FBF5F02168D2
:103DD00000F00F0010448860BDE8F08161684A1867
:103DE000A0FB07015B41FCF7A7FA0146B0FBF5F029
:103DF0000201B1FBF5F06FF01803584301EB8000AE
:103E000006EBC000B0FBF5F000F0F80002EB40025A
:103E1000B1FBF5F0584301EB800006EBC000B0FBAE
:103E2000F5F0216800F0070010448860D4E7000036
:103E3000001001400014014037B582B0044613461B
:103E4000039AA262A38500206064222184F84210B4
:103E5000E56B1F49E963E56B1E492964E56B1E4963
:103E6000E964E16B08652168E06B091DFDF74EFF11
:103E700038B110206064202084F84200012005B091
:103E800030BD2068016840680190206948B1206811
:103E90000C3050E8001F41F4807140E80012002A05
:103EA000F5D12068143050E8001F41F0010140E8CE
:103EB0000012002AF5D12068143050E8001F41F0AC
:103EC000400140E80012002AF5D10020D7E70000A9
:103ED000353B0008BB3B0008EB3A000890F8411066
:103EE000212901D0022070478168B1F5805F01D19E
:103EF000016961B1016A4A1C026202680978516075
:103F0000C18C491E0904090CC1840AD013E0016A5E
:103F100002680988C1F308015160016A891C0162C5
:103F2000EEE70168CA6822F08002CA600068C168D2
:103F300041F04001C16000207047000010B5044806
:103F4000FEF760FFBDE81040024800F0AFB8000087
:103F5000E4010020584D002010B50448FEF752FF40
:103F6000BDE81040024800F0A1B800002C0200207B
:103F7000784D0020F8B504460D4616461F46002C25
:103F800001D1FDF792F843492068884215D1424893
:103F9000046085608680394600F02DF9206801684C
:103FA00041680091C16841F01001C1603246294664
:103FB0002046BDE8F840FFF755B93849884216D188
:103FC00035481030046085608680394600F013F96A
:103FD0002068016841680091C16841F01001C1602A
:103FE000324629462046BDE8F840FFF73BB92C4948
:103FF000884216D128482030046085608680394682
:1040000000F0F9F82068016841680091C16841F04A
:104010001001C160324629462046BDE8F840FFF74E
:1040200021B92049884216D11B4840300460856080
:104030008680394600F0DFF8206801684168009109
:10404000C16841F01001C160324629462046BDE8F2
:10405000F840FFF707B91449884216D10E483030AE
:10406000046085608680394600F0C5F820680168E4
:1040700041680091C16841F01001C1603246294693
:104080002046BDE8F840FFF7EDB8BDE8F840FDF781
:104090000CB8000000100140584D002000440040C2
:1040A00000480040004C00400014014001680968CD
:1040B0000968C943C90601D400F002B8704700007E
:1040C00038B50446216808680268406800900846D0
:1040D000FEF75EFE2168A088C96B09684968401A2E
:1040E00081B206480180E2680AB1A0689047A288C0
:1040F000A1682068BDE83840FFF7B4B8BC000020D4
:1041000070B52DED048B324C94ED032A84ED062A14
:1041100094ED041A84ED071A90ED000A84ED000A6C
:10412000D0ED010AC4ED010AD0ED020AC4ED020A85
:10413000D0ED031AC4ED031AD0ED040AC4ED040A4D
:10414000D0ED052AC4ED052A71EEC21AC4ED081A95
:1041500070EEC10AC4ED090A04F1300585ED020ACA
:1041600094ED0A1A31EE211A84ED0A1A94ED0B1A15
:1041700071EE200AC4ED0B0ADFED169A9FED169A38
:1041800060EE290A80EE890A01F056FBA06A04F06D
:10419000C5F89FED128B53EC182B03F0BFFC03F016
:1041A0008BFC286095ED020A60EE290A80EE890AF0
:1041B00001F09AFAE06A04F0B1F853EC182B03F01E
:1041C000ADFC03F079FC6860BDEC048B70BD0000B1
:1041D000A84D0020DB0F49400000344300000000E0
:1041E0000000000002480168491C0160704700009F
:1041F000B0000020FEE7C1607047012001F0BAFD69
:10420000FBE7000010B52DED048BF2EE042A9FEDC4
:10421000538AB0EE482AF0EE481ADFED518AB0EE2C
:10422000681A9FED509AB2EE080A0021F0EE490A92
:104230004D4800F0DDF9F2EE042AB0EE482AF0EE27
:10424000481AB0EE681AF0EE490AB2EE080A0121E7
:10425000454800F0CDF9F2EE042AB0EE482AF0EE1F
:10426000481AB0EE681AF0EE490AB2EE080A0221C6
:104270003D4800F0BDF9F2EE042AB0EE482AF0EE17
:10428000481AB0EE681AF0EE490AB2EE080A0321A5
:10429000354800F0ADF9DFED359A00220123F0EE4C
:1042A000680AB0EE690A11462F4800F093F901231D
:1042B0000022F0EE680AB0EE690A19462A4800F0BA
:1042C00089F901230022F0EE680AB0EE690A0221A2
:1042D000254800F07FF901230022F0EE680AB0EED5
:1042E000690A0321204800F075F9F0EE682AB0EE63
:1042F000482AF0EE481AB0EE681AF0EE490AB2EE1B
:10430000080A00211A4801F03EF800220123F0EECD
:10431000680AB0EE690A1146154801F021F8F0EE7E
:10432000682AB0EE482AF0EE481AB0EE681AF0EEAD
:10433000490AB2EE080A01210D4801F024F8F0EE16
:10434000680AB0EE690ABDEC048B01230022BDE8C7
:1043500010401946064801F003B8000000008046EE
:10436000000000008FC2753C004F0020CDCCCC3D3A
:10437000385200200A68431CD35C805C43EA00206A
:1043800000B2921C0A60704710B50A68C31CD35C67
:10439000845C43EA0463441C145D2404801C105CA8
:1043A00044EA00200343121D0A60184610BD30B5D0
:1043B00013680D0E5C1C1460C55413680D0C5C1C56
:1043C0001460C55413680D0A5C1C1460C55413684E
:1043D0005C1C1460C15430BD10B504462DED028B39
:1043E0004878097840EA01202082217F00291ED0E8
:1043F00000EE100A216AF8EE400A94ED060A70EE0B
:10440000C00A10EE902A12F16A5F02D9491C21629B
:1044100015E000EE900AF8EE600A30EEC00A10EEE9
:10442000102AB2F18B4F0ADD491E216207E000EE2F
:10443000100AB8EE400A84ED020A0121217700EE4D
:10444000100AB8EE400A84ED060A216AD4ED020A89
:1044500000EB413000EE100AB8EEC00A30EE600A00
:10446000BDEEC08A2068816A20468847F8EEC80AF7
:10447000206880EE808AC1692046884700EE100AD5
:10448000B8EE400AC8EE000AC4ED050ABDEC028B86
:1044900010BD70B505462DED028B0C462868C26A2A
:1044A000284690472868B0EE408AC26A284690475E
:1044B000B1EE400AF0EE480A05F10C0003F0DEFA16
:1044C00095ED030A2846BDEEC00A10EE101A09B297
:1044D00002790825531E032B11D804EB42020B0A64
:1044E00002F8023C027904EB420202F8011C016866
:1044F000C96B8847A0602573BDEC028B70BD531F4C
:10450000032BF9D804EB42020B0A02F80A3C0279A9
:1045100004EB420202F8091C0168896B8847A0601D
:104520002573E9E770B504460D4620682946026AFE
:104530002046904720682946426B2046904768797C
:10454000297940EA0120E08470BD000010B500F038
:1045500011F8034901600021C18480F8281010BDC2
:10456000BC8500087047CA78897842EA01218184B5
:104570007047000001719FED090A80ED020A80ED8D
:10458000030A0021018280ED050A80ED060A017709
:104590000162034A0260818470470000000000004D
:1045A000048600089FED051A60EE810A9FED041A4B
:1045B00020EE011A80EE810A704700000000704270
:1045C000DA0FC94000F14801014803F0E9B80000E2
:1045D00004010020C1EB011100EBC10080F848216B
:1045E00080F8493180ED430AC0ED460A012070474A
:1045F00010B5B0EE613AF0EE421AC1EB011100EBDA
:10460000C100F830B0EE432A00F066FB012010BD77
:104610000FB410B50446204600F0C4FF9DED030A18
:10462000B5EEC00AF1EE10FA0FDDD4EDC80AB4EE13
:10463000E00AF1EE10FA08DB94EDC00A94ED001ADE
:1046400040EE010ACDED030A13E0B5EEC00AF1EE2B
:1046500010FA0ED2D4EDC80AB4EEE00AF1EE10FA68
:1046600007D894EDC00A94ED001A40EE410ACDED52
:10467000030A9DED040AB5EEC00AF1EE10FA0FDD53
:10468000D4EDC90AB4EEE00AF1EE10FA08DB94EDBD
:10469000C00A94ED001A40EE010ACDED040A13E0C1
:1046A000B5EEC00AF1EE10FA0ED2D4EDC90AB4EE9E
:1046B000E00AF1EE10FA07D894EDC00A94ED001A62
:1046C00040EE410ACDED040A182203A904F5487012
:1046D000FBF705FFD4F8F802042851D094EDBF0A87
:1046E000F3EE030A2046FFF75DFFDDED030A9DEDC3
:1046F000081AD4EDC11A41EE210A20EE200A84EDF9
:10470000B70A94EDBF0AF3EE030A2046FFF74AFF0B
:10471000DDED040A94EDC71AD4EDC61AF1EE600A75
:1047200060EE810A9DED031A41EE610A9DED081AC3
:10473000D4EDC11A41EE210A20EE200A84EDB90A17
:1047400094EDBF0AF3EE030A2046FFF72BFFDDEDE1
:10475000040A94EDC41AD4EDC51A60EE810A9DEDE9
:10476000031A41EE610A9DED081AD4EDC11A41EE1B
:10477000210A20EE200A84EDBB0A10BC5DF814FB70
:1047800094EDBF0AF3EE030A2046FFF70BFF9DED01
:10479000031AD4EDC20ADDED041A21EE201A01EE4F
:1047A000E01ADDED080AD4EDC11A00EEA11A20EEE0
:1047B000010A84EDB70A94EDBF0AF3EE030A20461E
:1047C000FFF7F0FEDDED040ADDED031AB1EE601A2D
:1047D000D4EDC20A21EE201A01EEE01ADDED080A3E
:1047E000D4EDC11A00EEA11A20EE010A84EDB90A37
:1047F00094EDBF0AF3EE030A2046FFF7D3FE9DEDCA
:10480000041AD4EDC20ADDED031A21EE201A01EEDE
:10481000E01ADDED080AD4EDC11A00EEA11A20EE6F
:10482000010A84EDBB0A94EDBF0AF3EE030A2046A9
:10483000FFF7B8FE9DED041AD4EDC20ADDED031AB0
:1048400021EE201A01EEA01ADDED080AD4EDC11AFE
:1048500000EEA11A20EE010A84EDBD0A8DE70FB427
:10486000FEB505460CA807C88DE8070009A928462B
:104870000EC9FFF7CDFE00241EE004EB440000EB60
:10488000C40005EB80000646B0F96C0000EE100A8B
:10489000C4EB041005EBC000B8EEC00A80ED400A7E
:1048A00005EBC40191EDB70A80ED410AF83000F044
:1048B0001FFA86ED150A641CD5F8F802A042DCDC6C
:1048C000FEBC5DF814FB000070B504462DED048BB2
:1048D000B0EE408AB0EE609A0D46F0EE418A1822A2
:1048E0003F4904F10800FBF7FAFD3D491822183151
:1048F00004F12000FBF7F3FD012104F14800FFF76C
:1049000025FE022104F17400FFF720FE032104F1CB
:10491000A000FFF71BFE042104F1CC00FFF716FEF8
:10492000042378222F4904F1F80000F0C2FEA0F120
:10493000F8040020C4F8F8029FED2B0A84EDBF0AAA
:104940009FED2A0A84EDC00A9FED290A84EDC10A71
:10495000DFED289AB0EE690A00F082FE84EDC20A0B
:10496000B0EE690A00F07EFE84EDC30ADFED229A04
:10497000B0EE690A00F074FE84EDC40AB0EE690A74
:1049800000F070FE84EDC50ADFED1C9AB0EE690AF6
:1049900000F066FE84EDC60AB0EE690A00F062FE21
:1049A00084EDC70A0E491822303104F54870FBF730
:1049B00096FD04F5367484ED098AC4ED0A8A84ED07
:1049C0000B9A2562012020600220A0600320206154
:1049D0000420A061A4F53674BDEC048B204670BDA4
:1049E000FC840008FD4E0008E3A59B3D000000008C
:1049F0009318A43EDA0F493F910A063F910A863F79
:104A000010B5044604232C22034904F14800FBF7A7
:104A1000DDFD204610BD00006545000870B5044668
:104A20002DED068BF0EE408AB0EE608AF0EE419AF2
:104A300094ED120AB4EE480AF1EE10FA06D194EDA4
:104A4000110AB4EE680AF1EE10FA07D02068816806
:104A500020468847C4ED118A84ED128A94F821001B
:104A600000287CD194F820009FED7DAA38EE689A4A
:104A7000F0EE00AA012588BB84ED018AC4ED028A0C
:104A800094ED090A4FF07E5110EE100A88420FDCB7
:104A9000D4ED0A0A10EE900A884209DCB5EEC00A8D
:104AA000F1EE10FA04D3F5EEC00AF1EE10FA06D2D8
:104AB000B0EE4A0A84ED040ABDEC068B70BDB5EE7B
:104AC000C00AF1EE10FA0AD1F5EEC00AF1EE10FAC2
:104AD00005D194ED0B0A84ED040AEDE754E0F4EE01
:104AE000488AF1EE10FA04D1B0EE4A0A84ED040AC5
:104AF000E2E7B0EE490A02F0D3FF84ED0C0AD4EDF0
:104B0000090A60EE200AC4ED0D0A94ED0A1A20EE9F
:104B1000011A84ED0E1A30EE600A30EE410A84ED7F
:104B20000F0A94ED0B0AD4ED031A60EEAA0A20EEE8
:104B3000000AB0EE402A01EEE12AC2EE201AC4EDCE
:104B4000051A61EE2A0A80EE201A84ED061AB5EEE7
:104B5000C09AF1EE10FA06DDF4EEC89A00E07BE0B0
:104B6000F1EE10FA09DCB5EEC09AF1EE10FA09D2B6
:104B7000F4EEC89AF1EE10FA04D2B0EE4A0A84EDCF
:104B8000040A99E784F82050B5EEC09AF1EE10FAC5
:104B900006DD39EEE80A02F083FF84ED100A05E035
:104BA00038EEE90A02F07CFF84ED100A94ED100A59
:104BB000D4ED0D0AB4EEE00AF1EE10FA10D2D4ED05
:104BC000050A60EEAA0A60EE800A94ED030A40EE40
:104BD000000AB0EE600A00F047FD84ED040A21E00F
:104BE00094ED0F1A70EE811AF4EEC01AF1EE10FA7D
:104BF00004DD94ED0B0A84ED040A13E030EE600A44
:104C0000D4ED0B1AD4ED060A61EEA11A30EE410A7A
:104C100060EEAA0A40EEC01AB0EE610A00F024FD70
:104C200084ED040AB5EEC09AF1EE10FA05D294EDC7
:104C3000040AB1EE400A84ED040A39EEC80A02F013
:104C40002FFFD4ED070AB4EEE00AF1EE10FA03D21A
:104C500084ED04AA84F8215094ED040A2CE70000A6
:104C600000000000002100F8201F4170704700B5CF
:104C70000146084600F005F808465DF804EB00F030
:104C800007B8D0ED010AC0ED020A80ED010A7047B5
:104C900090ED010AD0ED000AF7EE001A90ED021A2D
:104CA00020EE200A71EEE00A01EE200A70470000B3
:104CB00080ED000A9FED030A80ED020A80ED010AF3
:104CC000704700000000000000F8501F427000ED27
:104CD0000F0A40ED0C0A704780ED0D0AC0ED0E0A78
:104CE00080ED0F1AC0ED111A80ED102A70470000F8
:104CF00010B504462DED028B204600F053FC9FEDCD
:104D00007E8A20B1B0EE480ABDEC028B10BD94ED56
:104D1000030AD4ED020A30EE600A84ED0C0A02F0B8
:104D2000BFFED4ED120AB4EEE00AF1EE10FA04D29E
:104D3000B0EE480A84ED040AE6E794ED0C0A04F1AB
:104D40001400FFF794FF84ED0C0A94F8510050B161
:104D5000D4ED0D0AD4ED151A20EE801A00EEE11AFA
:104D600084ED1B1A05E0D4ED0D0A60EE800AC4ED57
:104D70001B0A94ED0E1AB5EEC01AF1EE10FA18D017
:104D800010B184ED190A07E0D4ED190AD4ED001A28
:104D900040EE210AC4ED190A94ED110A04F16400F1
:104DA000C0EE010AF1EE401A81EE810A02F054FED3
:104DB00001E084ED198A94ED0C0A02F071FED4ED45
:104DC000130AB4EEE00AF1EE10FA10D294ED0E0AD6
:104DD000D4ED190A20EE200A84ED1A0AD4ED110A46
:104DE00004F16800B1EE600A02F036FE01E084EDE5
:104DF0001A8A94F85000B0EE000AE0B194F851001D
:104E000070B1D4ED020A94ED181A70EE810A94ED97
:104E1000171A41EE400A94ED001A80EE810A26E04E
:104E200094ED020AD4ED170A94ED001A70EE600AB0
:104E300080EE810A1BE094F8510070B1D4ED0C0AA9
:104E400094ED161A70EE810A94ED151A41EE400A9F
:104E500094ED001A80EE810A09E094ED0C0AD4ED7D
:104E6000150A94ED001A70EE600A80EE810A04F1D2
:104E70002000FFF7FCFED4ED0F0A20EE800A84ED3F
:104E80001C0AD4ED150AC4ED160AD4ED0C0AC4EDC3
:104E9000150AD4ED170AC4ED180AD4ED020AC4EDC0
:104EA000170A94F8510070B1D4ED1B0A94ED1A1A48
:104EB00070EE810A30EE800AD4ED1D0A30EE200A31
:104EC00084ED040A09E0D4ED1B0A94ED1A1A70EE81
:104ED000810A30EE800A84ED040A94ED040A84ED20
:104EE0001D0AD4ED100A04F11000B1EE600A02F0C0
:104EF000B3FD94ED040A07E70000000010B52DEDA6
:104F0000028B9FED208A80ED028A80ED038A80ED7E
:104F1000048AB7EE000A1430FFF7CAFE1438B7EE61
:104F2000000A2030FFF7C4FE0021017380ED048ADF
:104F300080ED058A80ED068A80ED078A80ED088A7B
:104F400080ED098A80ED0A8A9FED0F0A80ED0B0A39
:104F500080F8301080F8311080ED0D8A80ED0E8AD7
:104F600080ED0F8A80ED108A80ED118A80ED128A23
:104F700080ED138A80ED148A80ED158A2038BDEC0F
:104F8000028B10BD000000000000C8430A7980F8C1
:104F9000272003799A4206D14A68120A02850268DC
:104FA0001C31D26810477047CA798979DFED060A4B
:104FB00042EA012100EE101AB8EE400A80EE201AF3
:104FC00080ED051A704700000000484270B50446A5
:104FD0000D460020E06204F12C010E462846FFF742
:104FE000D3F9A08431462846FFF7C4F900EE100A31
:104FF000DFED0B0AB8EEC00A20EE200A84ED0C0AA1
:1050000031462846FFF7B6F900EE100ADFED050A33
:10501000B8EEC00A80EE201A84ED0D1A70BD0000B3
:105020000000C84200007A4438B50B4608211973C5
:1050300090F826200021062A13D2DFE802F012039E
:10504000132335470091017941F44071996090ED47
:10505000030A6A461846BDEEC00A10EE101AFFF7A2
:10506000A6F938BD0091017941F48071996090ED05
:10507000030A6A461846BDEEC00A10EE101AFFF782
:1050800096F938BD00910179996090ED030ADFED42
:10509000170A6A46184620EE200ABDEEC00A10EE36
:1050A000101AFFF784F938BD0091017941F480614D
:1050B000996090ED030A0E486A46BDEEC00A10EEF4
:1050C000101A41431846FFF772F938BD0091017973
:1050D00041F40071996090ED030A6A461846BDEEEE
:1050E000C00A10EE101AFFF762F938BD0050C3472E
:1050F00040420F00028D092A04D0102A05D102680F
:10510000126A10470268526B1047704710B5FFF7DC
:1051100031FA054901600021C1629FED040A80ED6A
:105120000C0A80ED0D0A10BD588600080000000032
:105130007047000010B50446914208D1E069A061B3
:10514000234800688047E061218B401AA08494F8CE
:1051500020000022012140F63403012807D0A08C52
:10516000984203D304F8201F6270A27010BDA08C77
:10517000984203D304F8212F617010BDA0F2B6311C
:1051800040F24C4399421FD894F821104B1C04EB79
:10519000410184F82130C88494F821000828ECD318
:1051A0000834E08B2081208C6081A08CA081608CF1
:1051B000E081E08C2080208D6080608DA080A08DBB
:1051C000E0802276627610BD84F8202010BD0000B9
:1051D000C000002070B504462DED028B04F5C475A7
:1051E00094F8C4029FED298A002809D094ED421A50
:1051F000B4EEC01AF1EE10FA24D2B0EE410A28E063
:10520000204600F0FDF89FED220A0120002185F8DC
:10521000500085F8511085ED050A85ED080AF0EE7D
:10522000480ABDEC028B28469FED1A1ABDE8704073
:10523000F0EE412A9FED182ADFED181AB2EE040AAB
:10524000FFF74ABDB5EEC00AF1EE10FA01D2B0EE9A
:10525000480A84ED650A94ED070A84ED640A28463D
:10526000FFF746FD84ED470AB4F92C0000EE100A62
:10527000B8EEC00A84ED460A04F58870FFF738FDE1
:1052800084ED050ABDEC028B70BD0000000000003B
:10529000CDCCCC3DCDCC4C3E0000FA430000C84202
:1052A00070B504462DED028B1646B0EE408A9FED98
:1052B0002A0ADFED2A8A94ED121A04F51E7004F50D
:1052C0000075002915D0F0EE400AB0EE680AFFF72D
:1052D000A5FB84ED830AB4F9580000EE100AB8EE7D
:1052E000C00A84ED820A2846FFF702FD84ED100A09
:1052F00012E0F0EE680AFFF791FB84ED830AB4F93F
:10530000580000EE100AB8EEC00A84ED820A284662
:10531000FFF7EEFC84ED100A94F8C402002810D0C8
:1053200096B1B1EE480A84ED1B0A84ED298AB0EEED
:10533000000AF8EE080A28EE000A80EE201A84ED32
:10534000371ABDEC028B70BDC4ED1B8AC4ED298AEF
:10535000C4ED378AF5E700000000E6C30000000056
:1053600010B514461A46002907D0012904D1214658
:1053700000F50070FFF7A8FC10BD214600F588700D
:10538000FFF7A2FC10BD10B5002906D0012903D1FA
:1053900000F50070FFF7A0FC10BD00F58870FFF766
:1053A0009BFC10BD70B5044604F10801114802F0E1
:1053B0006FF9114D2868012805DA04F160010F48E2
:1053C00002F076FA0BE005D104F1D0010B4802F0AF
:1053D0006FFA04E0022806D04FF0FF3028602868FA
:1053E000401C286070BD04F19801044802F060FA86
:1053F000F5E7000004010020D00000202C0100206F
:105400002DE9F0411D4D04461D4E28794FF47A7761
:10541000C0070BD1281D00F05EF938B13068804715
:10542000B0FBF7F0A860281DAFF30080306880471C
:10543000B0FBF7F0A968401AB84213D9208B00EEF0
:10544000100AB8EE400A84ED040AB4F8440000EEF5
:10545000100AB8EE400A84ED0F0A012084F8C40255
:10546000BDE8F0819FED070A84ED050A9FED060A6D
:1054700084ED100A002084F8C402F1E7D000002077
:10548000C000002000803BC50000FA4410B504466F
:105490002DED048BF0EE408AB0EE609A052104F108
:1054A0000800FFF753F8062104F13400FFF74EF827
:1054B000652104F16000FFF729FE662104F19800E0
:1054C000FFF724FE672104F1D000FFF71FFE9FEDD8
:1054D000258A84ED428A84ED438A04F58870FFF7BB
:1054E0000DFDA0F5887000F5C470FFF707FDA0F56D
:1054F000C47000F50070FFF701FDA0F500709FED8E
:105500001A1ADFED1A1A9FED1A2A00F51E71F7EE2E
:10551000002A81ED048A002281F8202081F82120D0
:10552000144B0B6081ED091A81ED0A1AC1ED0B1ABB
:1055300081ED032AC1ED072A80F8C42280EDB28AEA
:1055400080F8CC22C0ED428A80ED439A012280F897
:10555000862080F8BE2080F8F62080ED1B8ABDEC06
:10556000048B10BD000000009A99193E0000FA4417
:105570000000C8424486000810B5044603233822C0
:10558000064904F16000FBF721F802232C220449AC
:1055900004F10800FBF71AF8204610BD315100084D
:1055A0006545000810B5044617480068002824D057
:1055B000616861B18047616881420CD9411A491E16
:1055C00000EE101AB8EE400A84ED000A0AE08047A7
:1055D0006060012010BD411A00EE101AB8EE400ABA
:1055E00084ED000A606094ED000ADFED080A20EE09
:1055F000200A84ED000A002010BD9FED050A84ED0D
:10560000000A012010BD0000C0000020BD37863513
:1056100000000000002803D0024908600120704704
:1056200000207047C0000020704700009FED010A75
:1056300070470000610BB641012070479FED010AE1
:10564000704700000000804613207047012070471B
:105650004FF40070704740F2FF1070470020704711
:1056600000F042B800F0E8B800F0AEB9410008021E
:1056700018BF04200A0E18BF40F001004FF07F420F
:1056800032EA010108BF40F00200012808BF0520EE
:1056900070470907090E002804DB00F1E02080F8BC
:1056A0000014704700F00F0000F1E02080F8141D96
:1056B00070472DE9F0411C4617460E00804607D082
:1056C000054602E02846B0473D442046641EF9D214
:1056D0004046BDE8F081016809B100207047012112
:1056E000016008467047000010EE101A08B5444AE1
:1056F0006846B2EB410F28D94FF0E640B0EB410FBE
:1057000094BF00204FF0FF3000900098002861DB2C
:1057100060EE000A10F0010F45D010F0020FDFED2F
:10572000391A9FED391A00EEE11ADFED381A40EE12
:10573000811A21EEA01AF0EE400A40EE010A08BFDD
:10574000F1EE600AB0EE600A08BD314B21F0004274
:1057500093423CD911F0004FDFED2E0A20EE201AC3
:10576000DFED2D0A19BF31EE601A71EE200A31EE1D
:10577000201A71EE600ABDEEE01A11EE100A9FEDDC
:10578000271A00F0030000EEC10A9FED251A0090D1
:1057900000EEC10A9FED231A00EEC10A9FED221A06
:1057A00000EEC10AB1E79FED211A9FED210A10F02A
:1057B000020F00EE810A9FED1F1A00EE801AB7EE6D
:1057C000000A00EE810A18BFB1EE400A08BD00F0E1
:1057D0002BF99AE710EE100A4000B0F17F4F3CBF62
:1057E000B7EE000A08BD07D14FF00100FAF75FFFDE
:1057F000BDE8084000F008B9BDE8084000F001B974
:10580000B61F927E336D4C39DA82083CA0AA2ABEBC
:10581000490E494683F9223F0000004B0000C93F72
:1058200000A0FD390020A2331A61342CB93AB2BA73
:10583000CA9F2A3DDDFFFFBE00B510EE101A2DED08
:10584000028B81B0524A6846B2EB410F2ED94FF01D
:10585000E640B0EB410F94BF00204FF0FF300090C6
:105860000098B0EE408A00286ADB10F0010F4BD0A0
:1058700068EE080A9FED471A9FED470A00EE810A7D
:105880009FED461A10F0020F00EE801AB7EE000AE4
:1058900000EE810A02BF01B0BDEC028B00BD00BF6B
:1058A00001B0B1EE400ABDEC028B00BD3C4B21F0D3
:1058B0000042934241D911F0004FDFED3A0A20EE49
:1058C000201ADFED390A19BF31EE601A71EE200A95
:1058D00031EE201A71EE600ABDEEE01A11EE100AE8
:1058E0009FED321A00F0030000EEC10A9FED301A5E
:1058F000009000EEC10A9FED2F1A00EEC10A9FED45
:105900002E1A00EEC10AABE728EE080A9FED2B1A0B
:10591000DFED2B0A10F0020F40EE410A9FED291A2D
:1059200000EE201A61EE000AB0EE480A08EE200AE6
:10593000B6D101B0BDEC028B00BD00F075F88FE769
:1059400018EE100A4000B0F17F4F0DD218EE100A89
:10595000FFF78CFE042808BF00F05EF8B0EE480A9E
:1059600001B0BDEC028B00BD09D10120FAF79FFE0A
:1059700001B0BDEC028B5DF804EB00F045B801B05E
:10598000B0EE480ABDEC028B5DF804EB00F039B8CC
:10599000B61F927EB93AB2BACA9F2A3DDDFFFFBE5A
:1059A000490E494683F9223F0000004B0000C93FE1
:1059B00000A0FD390020A2331A61342C336D4C391C
:1059C000DA82083CA0AA2ABE10B52DED028BB1EEFA
:1059D000C08A18EE100A20F00040C0F1FF40C00F4E
:1059E0000AD010EE100A20F00040C0F1FF40C00FB6
:1059F00004BF0120FAF75BFEB0EE480ABDEC028B53
:105A000010BD30EE000A7047DFED020A80EEA00AFA
:105A100070470000000000009FED020A20EE000A1F
:105A200070470000000000102DE9F0014FF07F42A8
:105A3000B2EB410F9FBF4FF0FF310160BDE8F001B5
:105A400070474FF0004242EA0123C1F3C752783A4F
:105A5000551112F01F0C434CCCF120067C44C1F3CD
:105A6000C752A2F178024FEA621204EB820254F8A4
:105A7000254008BFD2E9015612D0556804FA0CF44B
:105A800025FA06F73C43976805FA0CF527FA06F85D
:105A9000D26807FA0CFCF24045EA08054CEA020617
:105AA000A4FB034CA5FB0352A6FB03631D449D42CC
:105AB00034BF012600261319334416B1934202D98C
:105AC00003E0934201D2012200E00022624402F18D
:105AD000200C9206DC0C42EA443200EE102A5B03F2
